{
  "contractName": "Haal",
  "abi": [
    {
      "inputs": [
        {
          "internalType": "bytes32",
          "name": "_ballotIdentifier",
          "type": "bytes32"
        },
        {
          "internalType": "bytes",
          "name": "_encryptionPublicKey",
          "type": "bytes"
        },
        {
          "internalType": "address",
          "name": "_zkVerifier",
          "type": "address"
        }
      ],
      "payable": false,
      "stateMutability": "nonpayable",
      "type": "constructor"
    },
    {
      "anonymous": false,
      "inputs": [
        {
          "indexed": false,
          "internalType": "address",
          "name": "voter",
          "type": "address"
        },
        {
          "indexed": false,
          "internalType": "bool",
          "name": "voted",
          "type": "bool"
        }
      ],
      "name": "Voted",
      "type": "event"
    },
    {
      "constant": true,
      "inputs": [],
      "name": "auctionEnd",
      "outputs": [
        {
          "internalType": "uint256",
          "name": "",
          "type": "uint256"
        }
      ],
      "payable": false,
      "stateMutability": "view",
      "type": "function"
    },
    {
      "constant": true,
      "inputs": [],
      "name": "ballotIdentifier",
      "outputs": [
        {
          "internalType": "bytes32",
          "name": "",
          "type": "bytes32"
        }
      ],
      "payable": false,
      "stateMutability": "view",
      "type": "function"
    },
    {
      "constant": true,
      "inputs": [],
      "name": "encryptionPublicKey",
      "outputs": [
        {
          "internalType": "bytes",
          "name": "",
          "type": "bytes"
        }
      ],
      "payable": false,
      "stateMutability": "view",
      "type": "function"
    },
    {
      "constant": true,
      "inputs": [
        {
          "internalType": "bytes32",
          "name": "",
          "type": "bytes32"
        }
      ],
      "name": "indexProposal",
      "outputs": [
        {
          "internalType": "uint256",
          "name": "",
          "type": "uint256"
        }
      ],
      "payable": false,
      "stateMutability": "view",
      "type": "function"
    },
    {
      "constant": true,
      "inputs": [],
      "name": "owner",
      "outputs": [
        {
          "internalType": "address",
          "name": "",
          "type": "address"
        }
      ],
      "payable": false,
      "stateMutability": "view",
      "type": "function"
    },
    {
      "constant": true,
      "inputs": [
        {
          "internalType": "address",
          "name": "",
          "type": "address"
        }
      ],
      "name": "realVoters",
      "outputs": [
        {
          "internalType": "uint256",
          "name": "",
          "type": "uint256"
        }
      ],
      "payable": false,
      "stateMutability": "view",
      "type": "function"
    },
    {
      "constant": true,
      "inputs": [],
      "name": "voteProofs",
      "outputs": [
        {
          "internalType": "uint256",
          "name": "",
          "type": "uint256"
        }
      ],
      "payable": false,
      "stateMutability": "view",
      "type": "function"
    },
    {
      "constant": true,
      "inputs": [
        {
          "internalType": "uint256",
          "name": "",
          "type": "uint256"
        }
      ],
      "name": "voters",
      "outputs": [
        {
          "internalType": "bytes",
          "name": "pubKeyToRecover",
          "type": "bytes"
        },
        {
          "internalType": "bytes32",
          "name": "opMarker",
          "type": "bytes32"
        },
        {
          "internalType": "uint256",
          "name": "weight",
          "type": "uint256"
        },
        {
          "internalType": "bool",
          "name": "canVote",
          "type": "bool"
        },
        {
          "internalType": "address",
          "name": "ephemeralAddress",
          "type": "address"
        }
      ],
      "payable": false,
      "stateMutability": "view",
      "type": "function"
    },
    {
      "constant": true,
      "inputs": [],
      "name": "votersCount",
      "outputs": [
        {
          "internalType": "uint256",
          "name": "",
          "type": "uint256"
        }
      ],
      "payable": false,
      "stateMutability": "view",
      "type": "function"
    },
    {
      "constant": true,
      "inputs": [
        {
          "internalType": "address",
          "name": "",
          "type": "address"
        }
      ],
      "name": "votersIndex",
      "outputs": [
        {
          "internalType": "uint256",
          "name": "",
          "type": "uint256"
        }
      ],
      "payable": false,
      "stateMutability": "view",
      "type": "function"
    },
    {
      "constant": true,
      "inputs": [
        {
          "internalType": "address",
          "name": "",
          "type": "address"
        }
      ],
      "name": "votersMap",
      "outputs": [
        {
          "internalType": "bytes",
          "name": "pubKeyToRecover",
          "type": "bytes"
        },
        {
          "internalType": "bytes32",
          "name": "opMarker",
          "type": "bytes32"
        },
        {
          "internalType": "uint256",
          "name": "weight",
          "type": "uint256"
        },
        {
          "internalType": "bool",
          "name": "canVote",
          "type": "bool"
        },
        {
          "internalType": "address",
          "name": "ephemeralAddress",
          "type": "address"
        }
      ],
      "payable": false,
      "stateMutability": "view",
      "type": "function"
    },
    {
      "constant": true,
      "inputs": [
        {
          "internalType": "address",
          "name": "",
          "type": "address"
        }
      ],
      "name": "votes",
      "outputs": [
        {
          "internalType": "uint256",
          "name": "",
          "type": "uint256"
        }
      ],
      "payable": false,
      "stateMutability": "view",
      "type": "function"
    },
    {
      "constant": true,
      "inputs": [],
      "name": "votesCount",
      "outputs": [
        {
          "internalType": "uint256",
          "name": "",
          "type": "uint256"
        }
      ],
      "payable": false,
      "stateMutability": "view",
      "type": "function"
    },
    {
      "constant": true,
      "inputs": [],
      "name": "zkVerifier",
      "outputs": [
        {
          "internalType": "address",
          "name": "",
          "type": "address"
        }
      ],
      "payable": false,
      "stateMutability": "view",
      "type": "function"
    },
    {
      "constant": true,
      "inputs": [
        {
          "internalType": "address",
          "name": "_address",
          "type": "address"
        }
      ],
      "name": "canVote",
      "outputs": [
        {
          "internalType": "uint256",
          "name": "",
          "type": "uint256"
        }
      ],
      "payable": false,
      "stateMutability": "view",
      "type": "function"
    },
    {
      "constant": false,
      "inputs": [
        {
          "internalType": "address",
          "name": "_address",
          "type": "address"
        },
        {
          "internalType": "bytes",
          "name": "_pubKeyToRecover",
          "type": "bytes"
        },
        {
          "internalType": "bytes32",
          "name": "_opMarker",
          "type": "bytes32"
        }
      ],
      "name": "addEphemeralVoter",
      "outputs": [
        {
          "internalType": "bool",
          "name": "",
          "type": "bool"
        }
      ],
      "payable": false,
      "stateMutability": "nonpayable",
      "type": "function"
    },
    {
      "constant": true,
      "inputs": [],
      "name": "getproposals",
      "outputs": [
        {
          "components": [
            {
              "internalType": "address",
              "name": "creator",
              "type": "address"
            },
            {
              "internalType": "bytes32[]",
              "name": "postText_voteCount",
              "type": "bytes32[]"
            },
            {
              "internalType": "uint256[]",
              "name": "postIndex_voteCount",
              "type": "uint256[]"
            },
            {
              "internalType": "bytes32",
              "name": "post_id",
              "type": "bytes32"
            },
            {
              "internalType": "bytes32[]",
              "name": "post_propIds",
              "type": "bytes32[]"
            }
          ],
          "internalType": "struct Haal.Proposals[]",
          "name": "",
          "type": "tuple[]"
        }
      ],
      "payable": false,
      "stateMutability": "view",
      "type": "function"
    },
    {
      "constant": false,
      "inputs": [
        {
          "internalType": "bytes32",
          "name": "post_id",
          "type": "bytes32"
        },
        {
          "internalType": "bytes32[]",
          "name": "porpositions",
          "type": "bytes32[]"
        }
      ],
      "name": "addProposals",
      "outputs": [],
      "payable": false,
      "stateMutability": "nonpayable",
      "type": "function"
    },
    {
      "constant": true,
      "inputs": [
        {
          "internalType": "address",
          "name": "sender",
          "type": "address"
        }
      ],
      "name": "getBalance",
      "outputs": [
        {
          "internalType": "uint256",
          "name": "accountBalance",
          "type": "uint256"
        }
      ],
      "payable": false,
      "stateMutability": "view",
      "type": "function"
    },
    {
      "constant": false,
      "inputs": [
        {
          "internalType": "bytes32",
          "name": "post_id",
          "type": "bytes32"
        },
        {
          "internalType": "bytes32",
          "name": "choiceIndex",
          "type": "bytes32"
        }
      ],
      "name": "addVote",
      "outputs": [
        {
          "internalType": "bool",
          "name": "",
          "type": "bool"
        }
      ],
      "payable": false,
      "stateMutability": "nonpayable",
      "type": "function"
    },
    {
      "constant": false,
      "inputs": [
        {
          "internalType": "uint256[2]",
          "name": "_a",
          "type": "uint256[2]"
        },
        {
          "internalType": "uint256[2]",
          "name": "_a_p",
          "type": "uint256[2]"
        },
        {
          "internalType": "uint256[2][2]",
          "name": "_b",
          "type": "uint256[2][2]"
        },
        {
          "internalType": "uint256[2]",
          "name": "_b_p",
          "type": "uint256[2]"
        },
        {
          "internalType": "uint256[2]",
          "name": "_c",
          "type": "uint256[2]"
        },
        {
          "internalType": "uint256[2]",
          "name": "_c_p",
          "type": "uint256[2]"
        },
        {
          "internalType": "uint256[2]",
          "name": "_h",
          "type": "uint256[2]"
        },
        {
          "internalType": "uint256[2]",
          "name": "_k",
          "type": "uint256[2]"
        },
        {
          "internalType": "uint256[7]",
          "name": "_input",
          "type": "uint256[7]"
        }
      ],
      "name": "registerVoteProof",
      "outputs": [
        {
          "internalType": "bool",
          "name": "",
          "type": "bool"
        }
      ],
      "payable": false,
      "stateMutability": "nonpayable",
      "type": "function"
    },
    {
      "constant": true,
      "inputs": [
        {
          "internalType": "uint256",
          "name": "_index",
          "type": "uint256"
        }
      ],
      "name": "getEphemeralWallets",
      "outputs": [
        {
          "internalType": "address",
          "name": "",
          "type": "address"
        },
        {
          "internalType": "bytes",
          "name": "",
          "type": "bytes"
        },
        {
          "internalType": "bytes32",
          "name": "",
          "type": "bytes32"
        }
      ],
      "payable": false,
      "stateMutability": "view",
      "type": "function"
    }
  ],
  "bytecode": "0x60806040523480156200001157600080fd5b50604051620030a3380380620030a383398181016040526200003791908101906200021b565b33600960006101000a81548173ffffffffffffffffffffffffffffffffffffffff021916908373ffffffffffffffffffffffffffffffffffffffff16021790555082600b8190555081600c908051906020019062000097929190620000e2565b5080600a60006101000a81548173ffffffffffffffffffffffffffffffffffffffff021916908373ffffffffffffffffffffffffffffffffffffffff1602179055505050506200038d565b828054600181600116156101000203166002900490600052602060002090601f016020900481019282601f106200012557805160ff191683800117855562000156565b8280016001018555821562000156579182015b828111156200015557825182559160200191906001019062000138565b5b50905062000165919062000169565b5090565b6200018e91905b808211156200018a57600081600090555060010162000170565b5090565b90565b600081519050620001a28162000359565b92915050565b600081519050620001b98162000373565b92915050565b600082601f830112620001d157600080fd5b8151620001e8620001e282620002b8565b6200028a565b915080825260208301602083018583830111156200020557600080fd5b6200021283828462000323565b50505092915050565b6000806000606084860312156200023157600080fd5b60006200024186828701620001a8565b935050602084015167ffffffffffffffff8111156200025f57600080fd5b6200026d86828701620001bf565b9250506040620002808682870162000191565b9150509250925092565b6000604051905081810181811067ffffffffffffffff82111715620002ae57600080fd5b8060405250919050565b600067ffffffffffffffff821115620002d057600080fd5b601f19601f8301169050602081019050919050565b6000620002f28262000303565b9050919050565b6000819050919050565b600073ffffffffffffffffffffffffffffffffffffffff82169050919050565b60005b838110156200034357808201518184015260208101905062000326565b8381111562000353576000848401525b50505050565b6200036481620002e5565b81146200037057600080fd5b50565b6200037e81620002f9565b81146200038a57600080fd5b50565b612d06806200039d6000396000f3fe608060405234801561001057600080fd5b50600436106101425760003560e01c80638778b27d116100b8578063b03f38c31161007c578063b03f38c3146103cf578063d6df096d146103ed578063d8bff5a51461040b578063da58c7d91461043b578063f8b2cb4f1461046f578063fe5eddf61461049f57610142565b80638778b27d146103115780638da5cb5b1461032f57806398c079381461034d578063adfaa72e1461036b578063ae66d4f41461039b57610142565b806347a7fd2e1161010a57806347a7fd2e1461021557806364645c03146102455780636b902cf5146102635780637770a46c14610281578063790f57bd146102b1578063870ff0d4146102e157610142565b806306a17105146101475780631625aeef146101795780632a24f46c146101a95780632bbd74a1146101c757806335921b08146101e5575b600080fd5b610161600480360361015c919081019061227a565b6104bb565b6040516101709392919061273e565b60405180910390f35b610193600480360361018e919081019061203d565b6105e6565b6040516101a091906128e2565b60405180910390f35b6101b16105fe565b6040516101be91906128e2565b60405180910390f35b6101cf610604565b6040516101dc919061284b565b60405180910390f35b6101ff60048036036101fa919081019061223e565b61060a565b60405161020c9190612830565b60405180910390f35b61022f600480360361022a9190810190612066565b610948565b60405161023c9190612830565b60405180910390f35b61024d610bb8565b60405161025a919061277c565b60405180910390f35b61026b610d7f565b6040516102789190612866565b60405180910390f35b61029b600480360361029691908101906120cd565b610e1d565b6040516102a89190612830565b60405180910390f35b6102cb60048036036102c691908101906121c1565b61127c565b6040516102d891906128e2565b60405180910390f35b6102fb60048036036102f6919081019061203d565b611294565b60405161030891906128e2565b60405180910390f35b6103196112ac565b60405161032691906128e2565b60405180910390f35b6103376112b2565b60405161034491906126fa565b60405180910390f35b6103556112d8565b60405161036291906128e2565b60405180910390f35b6103856004803603610380919081019061203d565b6112de565b60405161039291906128e2565b60405180910390f35b6103b560048036036103b0919081019061203d565b611345565b6040516103c6959493929190612888565b60405180910390f35b6103d7611440565b6040516103e491906128e2565b60405180910390f35b6103f5611446565b60405161040291906126fa565b60405180910390f35b6104256004803603610420919081019061203d565b61146c565b60405161043291906128e2565b60405180910390f35b6104556004803603610450919081019061227a565b611484565b604051610466959493929190612888565b60405180910390f35b6104896004803603610484919081019061203d565b61158c565b60405161049691906128e2565b60405180910390f35b6104b960048036036104b491908101906121ea565b6115ad565b005b600060606000600384815481106104ce57fe5b906000526020600020906006020160030160019054906101000a900473ffffffffffffffffffffffffffffffffffffffff166003858154811061050d57fe5b90600052602060002090600602016000016003868154811061052b57fe5b906000526020600020906006020160010154818054600181600116156101000203166002900480601f0160208091040260200160405190810160405280929190818152602001828054600181600116156101000203166002900480156105d25780601f106105a7576101008083540402835291602001916105d2565b820191906000526020600020905b8154815290600101906020018083116105b557829003601f168201915b505050505091509250925092509193909250565b60016020528060005260406000206000915090505481565b60055481565b600b5481565b60006003600160003373ffffffffffffffffffffffffffffffffffffffff1673ffffffffffffffffffffffffffffffffffffffff168152602001908152602001600020548154811061065857fe5b9060005260206000209060060201600501600084815260200190815260200160002060009054906101000a900460ff16156106965760009050610942565b60016003600160003373ffffffffffffffffffffffffffffffffffffffff1673ffffffffffffffffffffffffffffffffffffffff16815260200190815260200160002054815481106106e457fe5b9060005260206000209060060201600501600085815260200190815260200160002060006101000a81548160ff021916908315150217905550816003600160003373ffffffffffffffffffffffffffffffffffffffff1673ffffffffffffffffffffffffffffffffffffffff168152602001908152602001600020548154811061076a57fe5b9060005260206000209060060201600401600085815260200190815260200160002081905550600060046008600086815260200190815260200160002054815481106107b257fe5b9060005260206000209060050201905060008090505b816002018054905081101561093b57838260010182815481106107e757fe5b9060005260206000200154141561092e576003600160003373ffffffffffffffffffffffffffffffffffffffff1673ffffffffffffffffffffffffffffffffffffffff168152602001908152602001600020548154811061084457fe5b90600052602060002090600602016002015482600201828154811061086557fe5b90600052602060002001600082825401925050819055506003600160003373ffffffffffffffffffffffffffffffffffffffff1673ffffffffffffffffffffffffffffffffffffffff16815260200190815260200160002054815481106108c857fe5b906000526020600020906006020160020154600e600082825401925050819055507f8eb81cb806dbb3d8a2f94981614331a55dfd90e06a42fdc362ca3ca96981d92f33600160405161091b929190612715565b60405180910390a1600192505050610942565b80806001019150506107c8565b5060009150505b92915050565b6000600960009054906101000a900473ffffffffffffffffffffffffffffffffffffffff1673ffffffffffffffffffffffffffffffffffffffff163373ffffffffffffffffffffffffffffffffffffffff16146109a85760009050610bb1565b6000600260008673ffffffffffffffffffffffffffffffffffffffff1673ffffffffffffffffffffffffffffffffffffffff16815260200190815260200160002060020154146109fb5760009050610bb1565b6001600260008673ffffffffffffffffffffffffffffffffffffffff1673ffffffffffffffffffffffffffffffffffffffff1681526020019081526020016000206002018190555060038054809190600101610a57919061175e565b5083600360016003805490500381548110610a6e57fe5b906000526020600020906006020160030160016101000a81548173ffffffffffffffffffffffffffffffffffffffff021916908373ffffffffffffffffffffffffffffffffffffffff16021790555082600360016003805490500381548110610ad357fe5b90600052602060002090600602016000019080519060200190610af7929190611790565b5081600360016003805490500381548110610b0e57fe5b9060005260206000209060060201600101819055506001600360016003805490500381548110610b3a57fe5b906000526020600020906006020160020181905550600160038054905003600160008673ffffffffffffffffffffffffffffffffffffffff1673ffffffffffffffffffffffffffffffffffffffff168152602001908152602001600020819055506001600d60008282540192505081905550600190505b9392505050565b60606004805480602002602001604051908101604052809291908181526020016000905b82821015610d7657838290600052602060002090600502016040518060a00160405290816000820160009054906101000a900473ffffffffffffffffffffffffffffffffffffffff1673ffffffffffffffffffffffffffffffffffffffff1673ffffffffffffffffffffffffffffffffffffffff16815260200160018201805480602002602001604051908101604052809291908181526020018280548015610ca457602002820191906000526020600020905b815481526020019060010190808311610c90575b5050505050815260200160028201805480602002602001604051908101604052809291908181526020018280548015610cfc57602002820191906000526020600020905b815481526020019060010190808311610ce8575b505050505081526020016003820154815260200160048201805480602002602001604051908101604052809291908181526020018280548015610d5e57602002820191906000526020600020905b815481526020019060010190808311610d4a575b50505050508152505081526020019060010190610bdc565b50505050905090565b600c8054600181600116156101000203166002900480601f016020809104026020016040519081016040528092919081815260200182805460018160011615610100020316600290048015610e155780601f10610dea57610100808354040283529160200191610e15565b820191906000526020600020905b815481529060010190602001808311610df857829003601f168201915b505050505081565b6000806000600760003373ffffffffffffffffffffffffffffffffffffffff1673ffffffffffffffffffffffffffffffffffffffff1681526020019081526020016000205481548110610e6c57fe5b90600052602060002090601b0201905080601a0160009054906101000a900460ff1615610e9d57600091505061126f565b6000600a60009054906101000a900473ffffffffffffffffffffffffffffffffffffffff1690508073ffffffffffffffffffffffffffffffffffffffff16636416976d8d8d8d8d8d8d8d8d8d6040518a63ffffffff1660e01b8152600401610f0d9998979695949392919061279e565b60206040518083038186803b158015610f2557600080fd5b505afa158015610f39573d6000803e3d6000fd5b505050506040513d601f19601f82011682018060405250610f5d9190810190612198565b610f6c5760009250505061126f565b60008054809190600101610f809190611810565b5033600060016000805490500381548110610f9757fe5b90600052602060002090601b020160000160006101000a81548173ffffffffffffffffffffffffffffffffffffffff021916908373ffffffffffffffffffffffffffffffffffffffff1602179055508b600060016000805490500381548110610ffc57fe5b90600052602060002090601b020160010190600261101b929190611842565b508a60006001600080549050038154811061103257fe5b90600052602060002090601b0201600301906002611051929190611842565b508960006001600080549050038154811061106857fe5b90600052602060002090601b0201600501906002611087929190611882565b508860006001600080549050038154811061109e57fe5b90600052602060002090601b02016009019060026110bd929190611842565b50876000600160008054905003815481106110d457fe5b90600052602060002090601b0201600b019060026110f3929190611842565b508660006001600080549050038154811061110a57fe5b90600052602060002090601b0201600d01906002611129929190611842565b508560006001600080549050038154811061114057fe5b90600052602060002090601b0201600f0190600261115f929190611842565b508460006001600080549050038154811061117657fe5b90600052602060002090601b0201601101906002611195929190611842565b50836000600160008054905003815481106111ac57fe5b90600052602060002090601b02016013019060076111cb9291906118d2565b5060016000600160008054905003815481106111e357fe5b90600052602060002090601b0201601a0160006101000a81548160ff021916908315150217905550600160008054905003600760003373ffffffffffffffffffffffffffffffffffffffff1673ffffffffffffffffffffffffffffffffffffffff168152602001908152602001600020819055506001600f600082825401925050819055506001925050505b9998505050505050505050565b60086020528060005260406000206000915090505481565b60076020528060005260406000206000915090505481565b600e5481565b600960009054906101000a900473ffffffffffffffffffffffffffffffffffffffff1681565b600d5481565b60006003600160008473ffffffffffffffffffffffffffffffffffffffff1673ffffffffffffffffffffffffffffffffffffffff168152602001908152602001600020548154811061132c57fe5b9060005260206000209060060201600201549050919050565b6002602052806000526040600020600091509050806000018054600181600116156101000203166002900480601f0160208091040260200160405190810160405280929190818152602001828054600181600116156101000203166002900480156113f15780601f106113c6576101008083540402835291602001916113f1565b820191906000526020600020905b8154815290600101906020018083116113d457829003601f168201915b5050505050908060010154908060020154908060030160009054906101000a900460ff16908060030160019054906101000a900473ffffffffffffffffffffffffffffffffffffffff16905085565b600f5481565b600a60009054906101000a900473ffffffffffffffffffffffffffffffffffffffff1681565b60066020528060005260406000206000915090505481565b6003818154811061149157fe5b9060005260206000209060060201600091509050806000018054600181600116156101000203166002900480601f01602080910402602001604051908101604052809291908181526020018280546001816001161561010002031660029004801561153d5780601f106115125761010080835404028352916020019161153d565b820191906000526020600020905b81548152906001019060200180831161152057829003601f168201915b5050505050908060010154908060020154908060030160009054906101000a900460ff16908060030160019054906101000a900473ffffffffffffffffffffffffffffffffffffffff16905085565b60008173ffffffffffffffffffffffffffffffffffffffff16319050919050565b606081516040519080825280602002602001820160405280156115df5781602001602082028038833980820191505090505b50905060008090505b82518110156116185760008282815181106115ff57fe5b60200260200101818152505080806001019150506115e8565b506004805480919060010161162d9190611912565b506040518060a001604052803373ffffffffffffffffffffffffffffffffffffffff1681526020018381526020018281526020018481526020018381525060046001600480549050038154811061168057fe5b906000526020600020906005020160008201518160000160006101000a81548173ffffffffffffffffffffffffffffffffffffffff021916908373ffffffffffffffffffffffffffffffffffffffff16021790555060208201518160010190805190602001906116f1929190611944565b50604082015181600201908051906020019061170e929190611991565b50606082015181600301556080820151816004019080519060200190611735929190611944565b509050506001600480549050036008600085815260200190815260200160002081905550505050565b81548183558181111561178b5760060281600602836000526020600020918201910161178a91906119de565b5b505050565b828054600181600116156101000203166002900490600052602060002090601f016020900481019282601f106117d157805160ff19168380011785556117ff565b828001600101855582156117ff579182015b828111156117fe5782518255916020019190600101906117e3565b5b50905061180c9190611a58565b5090565b81548183558181111561183d57601b0281601b02836000526020600020918201910161183c9190611a7d565b5b505050565b8260028101928215611871579160200282015b82811115611870578251825591602001919060010190611855565b5b50905061187e9190611a58565b5090565b826002800281019282156118c1579160200282015b828111156118c0578251829060026118b0929190611b67565b5091602001919060020190611897565b5b5090506118ce9190611ba7565b5090565b8260078101928215611901579160200282015b828111156119005782518255916020019190600101906118e5565b5b50905061190e9190611a58565b5090565b81548183558181111561193f5760050281600502836000526020600020918201910161193e9190611bd3565b5b505050565b828054828255906000526020600020908101928215611980579160200282015b8281111561197f578251825591602001919060010190611964565b5b50905061198d9190611c51565b5090565b8280548282559060005260206000209081019282156119cd579160200282015b828111156119cc5782518255916020019190600101906119b1565b5b5090506119da9190611a58565b5090565b611a5591905b80821115611a5157600080820160006119fd9190611c76565b600182016000905560028201600090556003820160006101000a81549060ff02191690556003820160016101000a81549073ffffffffffffffffffffffffffffffffffffffff0219169055506006016119e4565b5090565b90565b611a7a91905b80821115611a76576000816000905550600101611a5e565b5090565b90565b611b6491905b80821115611b6057600080820160006101000a81549073ffffffffffffffffffffffffffffffffffffffff0219169055600182016000611ac39190611cbe565b600382016000611ad39190611cbe565b600582016000611ae39190611ccc565b600982016000611af39190611cbe565b600b82016000611b039190611cbe565b600d82016000611b139190611cbe565b600f82016000611b239190611cbe565b601182016000611b339190611cbe565b601382016000611b439190611ced565b601a820160006101000a81549060ff021916905550601b01611a83565b5090565b90565b8260028101928215611b96579160200282015b82811115611b95578251825591602001919060010190611b7a565b5b509050611ba39190611a58565b5090565b611bd091905b80821115611bcc5760008181611bc39190611cbe565b50600201611bad565b5090565b90565b611c4e91905b80821115611c4a57600080820160006101000a81549073ffffffffffffffffffffffffffffffffffffffff0219169055600182016000611c199190611d00565b600282016000611c299190611d21565b6003820160009055600482016000611c419190611d00565b50600501611bd9565b5090565b90565b611c7391905b80821115611c6f576000816000905550600101611c57565b5090565b90565b50805460018160011615610100020316600290046000825580601f10611c9c5750611cbb565b601f016020900490600052602060002090810190611cba9190611a58565b5b50565b506000815560010160009055565b5060008181611cdb9190611cbe565b506002016000611ceb9190611cbe565b565b508060070190611cfd9190611a58565b50565b5080546000825590600052602060002090810190611d1e9190611c51565b50565b5080546000825590600052602060002090810190611d3f9190611a58565b50565b600081359050611d5181612c67565b92915050565b600082601f830112611d6857600080fd5b6002611d7b611d768261292a565b6128fd565b91508183856040840282011115611d9157600080fd5b60005b83811015611dc15781611da78882611e4e565b845260208401935060408301925050600181019050611d94565b5050505092915050565b600082601f830112611ddc57600080fd5b8135611def611dea8261294c565b6128fd565b91508181835260208401935060208101905083856020840282011115611e1457600080fd5b60005b83811015611e445781611e2a8882611fbf565b845260208401935060208301925050600181019050611e17565b5050505092915050565b600082601f830112611e5f57600080fd5b6002611e72611e6d82612974565b6128fd565b91508183856020840282011115611e8857600080fd5b60005b83811015611eb85781611e9e8882612028565b845260208401935060208301925050600181019050611e8b565b5050505092915050565b600082601f830112611ed357600080fd5b6002611ee6611ee182612996565b6128fd565b91508183856020840282011115611efc57600080fd5b60005b83811015611f2c5781611f128882612028565b845260208401935060208301925050600181019050611eff565b5050505092915050565b600082601f830112611f4757600080fd5b6007611f5a611f55826129b8565b6128fd565b91508183856020840282011115611f7057600080fd5b60005b83811015611fa05781611f868882612028565b845260208401935060208301925050600181019050611f73565b5050505092915050565b600081519050611fb981612c7e565b92915050565b600081359050611fce81612c95565b92915050565b600082601f830112611fe557600080fd5b8135611ff8611ff3826129da565b6128fd565b9150808252602083016020830185838301111561201457600080fd5b61201f838284612c14565b50505092915050565b60008135905061203781612cac565b92915050565b60006020828403121561204f57600080fd5b600061205d84828501611d42565b91505092915050565b60008060006060848603121561207b57600080fd5b600061208986828701611d42565b935050602084013567ffffffffffffffff8111156120a657600080fd5b6120b286828701611fd4565b92505060406120c386828701611fbf565b9150509250925092565b60008060008060008060008060006103208a8c0312156120ec57600080fd5b60006120fa8c828d01611ec2565b995050604061210b8c828d01611ec2565b985050608061211c8c828d01611d57565b97505061010061212e8c828d01611ec2565b9650506101406121408c828d01611ec2565b9550506101806121528c828d01611ec2565b9450506101c06121648c828d01611ec2565b9350506102006121768c828d01611ec2565b9250506102406121888c828d01611f36565b9150509295985092959850929598565b6000602082840312156121aa57600080fd5b60006121b884828501611faa565b91505092915050565b6000602082840312156121d357600080fd5b60006121e184828501611fbf565b91505092915050565b600080604083850312156121fd57600080fd5b600061220b85828601611fbf565b925050602083013567ffffffffffffffff81111561222857600080fd5b61223485828601611dcb565b9150509250929050565b6000806040838503121561225157600080fd5b600061225f85828601611fbf565b925050602061227085828601611fbf565b9150509250929050565b60006020828403121561228c57600080fd5b600061229a84828501612028565b91505092915050565b60006122af83836124ad565b60408301905092915050565b60006122c783836125c8565b60208301905092915050565b60006122df8383612658565b905092915050565b60006122f383836126dc565b60208301905092915050565b61230881612bde565b82525050565b61231781612b8c565b82525050565b61232681612b8c565b82525050565b61233581612a5e565b61233f8184612b1c565b925061234a82612a06565b8060005b8381101561237b57815161236287826122a3565b965061236d83612ac1565b92505060018101905061234e565b505050505050565b600061238e82612a69565b6123988185612b27565b93506123a383612a10565b8060005b838110156123d45781516123bb88826122bb565b97506123c683612ace565b9250506001810190506123a7565b5085935050505092915050565b60006123ec82612a74565b6123f68185612b38565b93508360208202850161240885612a20565b8060005b85811015612444578484038952815161242585826122d3565b945061243083612adb565b925060208a0199505060018101905061240c565b50829750879550505050505092915050565b61245f81612a8a565b6124698184612b54565b925061247482612a3a565b8060005b838110156124a557815161248c87826122e7565b965061249783612af5565b925050600181019050612478565b505050505050565b6124b681612a7f565b6124c08184612b49565b92506124cb82612a30565b8060005b838110156124fc5781516124e387826122e7565b96506124ee83612ae8565b9250506001810190506124cf565b505050505050565b61250d81612a95565b6125178184612b5f565b925061252282612a44565b8060005b8381101561255357815161253a87826122e7565b965061254583612b02565b925050600181019050612526565b505050505050565b600061256682612aa0565b6125708185612b6a565b935061257b83612a4e565b8060005b838110156125ac57815161259388826122e7565b975061259e83612b0f565b92505060018101905061257f565b5085935050505092915050565b6125c281612b9e565b82525050565b6125d181612baa565b82525050565b6125e081612baa565b82525050565b60006125f182612ab6565b6125fb8185612b7b565b935061260b818560208601612c23565b61261481612c56565b840191505092915050565b600061262a82612aab565b6126348185612b7b565b9350612644818560208601612c23565b61264d81612c56565b840191505092915050565b600060a083016000830151612670600086018261230e565b50602083015184820360208601526126888282612383565b915050604083015184820360408601526126a2828261255b565b91505060608301516126b760608601826125c8565b50608083015184820360808601526126cf8282612383565b9150508091505092915050565b6126e581612bd4565b82525050565b6126f481612bd4565b82525050565b600060208201905061270f600083018461231d565b92915050565b600060408201905061272a60008301856122ff565b61273760208301846125b9565b9392505050565b6000606082019050612753600083018661231d565b818103602083015261276581856125e6565b905061277460408301846125d7565b949350505050565b6000602082019050818103600083015261279681846123e1565b905092915050565b6000610320820190506127b4600083018c612456565b6127c1604083018b612456565b6127ce608083018a61232c565b6127dc610100830189612456565b6127ea610140830188612456565b6127f8610180830187612456565b6128066101c0830186612456565b612814610200830185612456565b612822610240830184612504565b9a9950505050505050505050565b600060208201905061284560008301846125b9565b92915050565b600060208201905061286060008301846125d7565b92915050565b60006020820190508181036000830152612880818461261f565b905092915050565b600060a08201905081810360008301526128a2818861261f565b90506128b160208301876125d7565b6128be60408301866126eb565b6128cb60608301856125b9565b6128d8608083018461231d565b9695505050505050565b60006020820190506128f760008301846126eb565b92915050565b6000604051905081810181811067ffffffffffffffff8211171561292057600080fd5b8060405250919050565b600067ffffffffffffffff82111561294157600080fd5b602082029050919050565b600067ffffffffffffffff82111561296357600080fd5b602082029050602081019050919050565b600067ffffffffffffffff82111561298b57600080fd5b602082029050919050565b600067ffffffffffffffff8211156129ad57600080fd5b602082029050919050565b600067ffffffffffffffff8211156129cf57600080fd5b602082029050919050565b600067ffffffffffffffff8211156129f157600080fd5b601f19601f8301169050602081019050919050565b6000819050919050565b6000819050602082019050919050565b6000819050602082019050919050565b6000819050919050565b6000819050919050565b6000819050919050565b6000819050602082019050919050565b600060029050919050565b600081519050919050565b600081519050919050565b600060029050919050565b600060029050919050565b600060079050919050565b600081519050919050565b600081519050919050565b600081519050919050565b6000602082019050919050565b6000602082019050919050565b6000602082019050919050565b6000602082019050919050565b6000602082019050919050565b6000602082019050919050565b6000602082019050919050565b600081905092915050565b600082825260208201905092915050565b600082825260208201905092915050565b600081905092915050565b600081905092915050565b600081905092915050565b600082825260208201905092915050565b600082825260208201905092915050565b6000612b9782612bb4565b9050919050565b60008115159050919050565b6000819050919050565b600073ffffffffffffffffffffffffffffffffffffffff82169050919050565b6000819050919050565b6000612be982612bf0565b9050919050565b6000612bfb82612c02565b9050919050565b6000612c0d82612bb4565b9050919050565b82818337600083830152505050565b60005b83811015612c41578082015181840152602081019050612c26565b83811115612c50576000848401525b50505050565b6000601f19601f8301169050919050565b612c7081612b8c565b8114612c7b57600080fd5b50565b612c8781612b9e565b8114612c9257600080fd5b50565b612c9e81612baa565b8114612ca957600080fd5b50565b612cb581612bd4565b8114612cc057600080fd5b5056fea365627a7a72315820e33180499669b18beb998269fd0fe156dd7a06d88863e9965effbf46bb55ba9f6c6578706572696d656e74616cf564736f6c63430005100040",
  "source": "// SPDX-License-Identifier: MIT\n\npragma solidity >=0.4.25;\npragma experimental ABIEncoderV2;\n\ncontract Verify { \n    function verifyProof( uint[2] calldata, uint[2] calldata, uint[2][2] calldata, uint[2] calldata, uint[2] calldata, uint[2] calldata, uint[2] calldata, uint[2] calldata, uint[7] calldata) external pure returns (bool){} \n}\n\ncontract Haal {\n\n    // struct EphemeralVoter {\n    //     address ephemeralAddress;\n    //     bytes pubKeyToRecover;\n    //     bytes32 opMarker;\n    //     bool canVote;\n    //     bool voted;\n    // }\n\n     struct Voter{\n        bytes pubKeyToRecover;\n        bytes32 opMarker;\n        uint weight;\n        bool canVote;\n        address ephemeralAddress;\n        mapping(bytes32 => bytes32) votedChoice;  // index of the voted proposal choice\n        mapping(bytes32 => bool) votedIndex;  // index of the voted proposal\n    }\n\n    struct Proposals{\n        address creator;\n        \n        bytes32[] postText_voteCount;\n        uint256[] postIndex_voteCount;\n\n        bytes32 post_id;\n        bytes32[] post_propIds;\n    }\n\n    \n    struct RealVoter {\n        address realVoterAddress;\n        uint[2] a;\n        uint[2] a_p;\n        uint[2][2] b;\n        uint[2] b_p;\n        uint[2] c;\n        uint[2] c_p;\n        uint[2] h;\n        uint[2] k;\n        uint[7] input;\n        bool voted;\n    }\n    \n    struct Result {\n        uint[] president;\n        uint[] senator;\n        uint[] stateGovernor;\n        bytes32[] encryptedResult;\n        bytes32[] proof;\n    }\n    \n    //EphemeralVoter[] public ephemeralVoterArray;\n    // Votes[] voteArray;\n    RealVoter[] realVoterArray;\n    \n    mapping(address => uint) public votersIndex;\n    mapping(address => Voter) public votersMap;\n    Voter[] public voters;\n    Proposals[] internal proposals;\n    uint public auctionEnd;\n    \n    // Struct indexes\n    // mapping(address => uint) public ephemeralVoters;\n    mapping(address => uint) public votes;\n    mapping(address => uint) public realVoters;\n\n    mapping(bytes32 => uint) public indexProposal;\n\n    address public owner; // there's no access control implemented on this demo\n    address public zkVerifier;\n    bytes32 public ballotIdentifier;\n    bytes public encryptionPublicKey; // better if converted to hex\n    uint public votersCount;\n    uint public votesCount;\n    uint public voteProofs;\n    \n    constructor(\n        bytes32 _ballotIdentifier, \n        bytes memory _encryptionPublicKey, \n        address _zkVerifier\n        ) public {\n        owner = msg.sender;\n        ballotIdentifier = _ballotIdentifier;\n        encryptionPublicKey = _encryptionPublicKey;\n        zkVerifier = _zkVerifier;\n    }\n\n    function canVote(address _address) view public returns(uint) {\n        return voters[votersIndex[_address]].weight;\n    }\n    \n    function addEphemeralVoter(\n        address _address, \n        bytes memory _pubKeyToRecover, \n        bytes32 _opMarker\n        ) public returns(bool){\n        \n        // the sender is the owner\n        if(msg.sender != owner) return(false);\n        if(votersMap[_address].weight != 0) return(false);\n\n        votersMap[_address].weight = 1;\n\n        voters.length++;\n        \n        voters[voters.length - 1].ephemeralAddress = _address;\n        voters[voters.length - 1].pubKeyToRecover = _pubKeyToRecover;\n        voters[voters.length - 1].opMarker = _opMarker;\n        voters[voters.length - 1].weight = 1;\n\n        votersIndex[_address] = voters.length - 1;\n        \n        votersCount+=1;\n        return(true);\n    }\n\n    function getproposals() view external returns(Proposals[] memory){\n        return proposals;\n    }\n\n     function addProposals(bytes32 post_id ,bytes32[] memory porpositions) public {\n        uint256[] memory porpositions_IndexvoteCount = new uint256[](porpositions.length);\n\n        for (uint i = 0; i < porpositions.length; i++) {\n            porpositions_IndexvoteCount[i] = 0;\n        }\n\n        proposals.length++;\n        proposals[proposals.length - 1] = Proposals({\n            creator: msg.sender,\n            postIndex_voteCount: porpositions_IndexvoteCount,\n            postText_voteCount: porpositions,\n            post_propIds: porpositions,\n            post_id: post_id\n        });\n\n        // proposals.push();\n\n        indexProposal[post_id] = proposals.length - 1;\n    }\n\n    function getBalance(address sender) public view returns(uint accountBalance){\n        accountBalance = sender.balance;\n    }\n\n    event Voted(address voter,bool voted);\n\n    function addVote(bytes32 post_id,bytes32 choiceIndex) public returns(bool)  {\n        // the duration of vote has't already pass\n        //require(block.timestamp < auctionEnd);\n        // the sender has't voted before\n        if(voters[votersIndex[msg.sender]].votedIndex[post_id])  return(false);\n        // the sender is voitng\n        voters[votersIndex[msg.sender]].votedIndex[post_id] = true;\n        // the sender choice from a proposal\n        voters[votersIndex[msg.sender]].votedChoice[post_id] = choiceIndex;\n        // increment proposal choice!\n        Proposals storage p = proposals[indexProposal[post_id]];\n        // .postIndex_voteCount[choiceIndex] += voters[votersIndex[msg.sender]].weight;\n\n        // votesCount += voters[votersIndex[msg.sender]].weight;\n\n        for(uint i= 0; i<p.postIndex_voteCount.length;i++ ) {\n            if(p.postText_voteCount[i] == choiceIndex ) {\n                p.postIndex_voteCount[i] += voters[votersIndex[msg.sender]].weight;\n                votesCount += voters[votersIndex[msg.sender]].weight;\n                emit Voted(msg.sender,true);\n                return(true);\n            }\n        }\n        return(false);\n        \n        \n    }\n\n    \n    // function addVote(\n    //     bytes32[] memory porpositions, \n    //     bytes[] memory _senator, \n    //     bytes[] memory _stateGovernor,\n    //     bytes32 _c\n    //     ) public returns(bool) {\n        \n    //     //EphemeralVoter storage sender = ephemeralVoters[msg.sender];\n    //     EphemeralVoter storage sender = ephemeralVoterArray[ephemeralVoters[msg.sender]];\n    //     if (sender.voted || !sender.canVote) return(false);\n        \n    //     voteArray.length++;\n    //     voteArray[voteArray.length-1].president = _president;\n    //     voteArray[voteArray.length-1].senator = _senator;\n    //     voteArray[voteArray.length-1].stateGovernor = _stateGovernor;\n    //     voteArray[voteArray.length-1].c = _c;\n        \n    //     votes[msg.sender] = voteArray.length-1;\n        \n    //     votesCount+=1;\n        \n    //     sender.voted = true;\n    //     sender.canVote = false;\n    //     return(true);\n    // }\n    \n    function registerVoteProof(\n        uint[2] memory _a,\n        uint[2] memory _a_p,\n        uint[2][2] memory _b,\n        uint[2] memory _b_p,\n        uint[2] memory _c,\n        uint[2] memory _c_p,\n        uint[2] memory _h,\n        uint[2] memory _k,\n        uint[7] memory _input\n        ) public returns (bool) {\n        \n        RealVoter storage sender = realVoterArray[realVoters[msg.sender]];\n        if (sender.voted) return(false);\n        \n        Verify verifier = Verify(zkVerifier);\n        if (!verifier.verifyProof(_a, _a_p, _b, _b_p, _c, _c_p, _h, _k, _input)) return (false);\n        \n        realVoterArray.length++;\n        \n        realVoterArray[realVoterArray.length-1].realVoterAddress = msg.sender;\n        realVoterArray[realVoterArray.length-1].a = _a;\n        realVoterArray[realVoterArray.length-1].a_p = _a_p;\n        realVoterArray[realVoterArray.length-1].b = _b;\n        realVoterArray[realVoterArray.length-1].b_p = _b_p;\n        realVoterArray[realVoterArray.length-1].c = _c;\n        realVoterArray[realVoterArray.length-1].c_p = _c_p;\n        realVoterArray[realVoterArray.length-1].h = _h;\n        realVoterArray[realVoterArray.length-1].k = _k;\n        realVoterArray[realVoterArray.length-1].input = _input;\n        realVoterArray[realVoterArray.length-1].voted = true;\n        \n        realVoters[msg.sender] = realVoterArray.length-1;\n        \n        voteProofs+=1;\n        return(true);\n    }\n        \n    function getEphemeralWallets(uint _index) view public returns(address, bytes memory, bytes32){\n        return(\n            voters[_index].ephemeralAddress, \n            voters[_index].pubKeyToRecover, \n            voters[_index].opMarker\n            );\n    }\n    \n    // function getVotes(uint _index) view public returns(bytes[] memory, bytes[] memory, bytes[] memory){\n    //     return(\n    //         voteArray[_index].president, \n    //         voteArray[_index].senator, \n    //         voteArray[_index].stateGovernor\n    //         );\n    // }\n    \n}",
  "sourcePath": "/home/moumen_ux/node/eGov/contracts/Haal.sol",
  "compiler": {
    "name": "solc",
    "version": "0.5.16+commit.9c3226ce.Emscripten.clang"
  },
  "schemaVersion": "3.4.6",
  "updatedAt": "2022-07-19T15:40:17.099Z",
  "networkType": "ethereum",
  "devdoc": {
    "methods": {}
  },
  "userdoc": {
    "methods": {}
  }
}